:100000000C948C440C9406450C9406450C940645BF
:100010000C9406450C9406450C9406450C94064534
:100020000C9406450C9406450C9406450C94064524
:100030000C9406450C9469450C94A9450C9406450E
:100040000C9406450C9406450C9406450C94064504
:100050000C9406450C9406450C9406450C940645F4
:100060000C9406450C9406450C9406450C940645E4
:10007000CA5BDD5BEF5B015CC85BC85BC85BC85BF0
:10008000295F515F755F985FC85BC85BC85BC85BE1
:10009000BC5EE45EC85BC85B595E815EC85BC85BE2
:1000A000155C475CC85BC85B715CC85BA45CC85BE3
:1000B000D75CC85B095DC85B3B5D835D955DC85BD4
:1000C000CF5DC85BF05DC85B325EC85B115E5A55A0
:1000D00001200101003808000000000000000000BD
:1000E000000000000000000000000000000081008F
:1000F000450027FF24FF2A902B1C210C22FB8500A2
:1001000084008903888D81096F02444247004501BC
:10011000B083B300B10125118A4F8B036649694949
:100120006F4D604A584A724977497C49494A7F492C
:1001300082498549C94900020800085504085A0047
:1001400000F8000990000A1E32050000FF000000C0
:100150003601000000000000000000000000000068
:10016000000000000000000000000000000000008F
:10017000000000000000000000000000000000007F
:10018000000000000000000000000000000000006F
:10019000000000000000000000000000000000005F
:1001A000000000000000000000000000000000004F
:1001B0000000000000490000000000495252000009
:1001C000004952531C25004952522425251B5252E6
:1001D0005C2D2D1C12120000000000000000000029
:1001E00000004049494900404949525B5B5B4A5223
:1001F000525B1C1C13125B1C241C12090909241BD2
:1002000012090909090A0A0A0A0A0A0A0A130A0A41
:10021000120A0A12130A00000000000000009252A5
:1002200052525252524913121309001C1B130A1244
:1002300012401B65641C090A0009241B1C6512007E
:1002400000251C1C1C1C010025241C1C1C1C00243B
:10025000252424241C1C000000000000000049404C
:1002600000000000000052494900000000001C5B33
:100270004A48000000001C25524900000000652487
:1002800064490000000065256449000000006D2EEF
:100290005C49000000000000000000004052000027
:1002A00000000049525C0000000053522425000069
:1002B00000535225252500004A5225251B00000029
:1002C0005B251300001B005B53000A1C3737095BDA
:1002D0001C657F372E2E522E2E1C131312002E2536
:1002E0001B13120000121C1C12000012251C12000D
:1002F00000122E371C1300132E37361C131B3737F2
:100300002E2E25131C1C2E2E2E2E1B1C1C1C6E6E1E
:100310006E1C1C1C1C1C0913131212131300131344
:100320001313131C0009131313131C0100371313A9
:10033000131C13002E2E1B1B1C1C001C772E1B1BBA
:100340002500137F251C1C1C010A37241C1C1C13B0
:100350000A2E25250900132E2425252525252E25A1
:1003600025252525252525252D2E251B1C1C2E2E36
:10037000251C13251B13251C1C1C1C0109521C1CAD
:100380001300011C5B5C0A000165775C1B00016EB9
:100390007F6E521B00006D1C5249000000001C13B0
:1003A0005300000000001C524A00000000005B5B8C
:1003B0000000000000005C000000000000000000E1
:1003C000000000000000000000000000000000002D
:1003D000000000000000135B7F776E6E6E6E136589
:1003E00077766E6E6E6E1B65777676766E771B5BB4
:1003F000BF76B676767609136DBFB7B6B765001BC4
:10040000125C76BF766D0000121B125B5B5C000015
:100410000000090A12136E77241C1C1C1C1C772573
:100420001C1C1C1C24256E1C1C1C2425251B1C1C90
:10043000242525130000646D6D1B00096EBF6D5BE4
:1004400009126EBF6D5B5B125B645B121312131BB0
:100450001212090100001C242E1C0900096E25241B
:10046000010009767F7F000012777F7F641264BFEE
:10047000BF775B121B09BF6D5B121B0900001213D3
:100480001B0900000000090000000000000000003F
:100490000000000000007F7F53131300000064126F
:1004A0001B01000000001B12000000000000000003
:1004B000000000000000000000000000000000003C
:1004C000000000000000000000000000000000002C
:1004D00000000000000000000000000000002600F6
:1004E0000000260026262F0000002F000000370005
:1004F000000037000000FF000000FF000000BF0008
:100500000000BF0000BF37000037000037000026A2
:10051000260000002626000000000000000026261D
:1005200026002626262600002F002F000000003778
:10053000000037000000FF000000FFFFFFFF000089
:100540000000BF0000000000000037000000262669
:1005500026002626262600000000000000002600B7
:1005600026262626000000002F0000002F00000095
:100570003700000037000000FFFFFFFF0000000011
:10058000BF000000BF000000370000003700260059
:1005900026262626000000000000000000000000C3
:1005A000262626002600002F00002F002F003700EF
:1005B000000037000037FF000000FF000000BF0010
:1005C0000000BF0000BF37000037000037002626BC
:1005D00026000000260000000000000000000000CF
:1005E00026000000000000002F000000000000377F
:1005F000000000000000FF0000000000000000BF3D
:1006000000000000000000003700000000000000B3
:1006100026000000000000000000000000000000B4
:1006200000000000000000000000000000000000CA
:100630000000000000E400000000099BEDF600004F
:10064000009BA4ADBFBF00529BA4767F7FB75B9B8E
:100650006D777F766EB7000000000000000000009C
:1006600000005BB6F6F6005BF6FFFFFFFFBFF6FF8C
:10067000FFFFFFBFBFAEFFBFFFFFFFB7AD65BFBF4F
:10068000FFFFB7B6AD65B7BFFFFFBFB7AE6EB7BF71
:10069000FFFFBFB7B7650000000000000000F6F6DE
:1006A000EDEDADA4A49BB66D6D5C526E65646565A1
:1006B000655265766D255C5C52536E24656E65529D
:1006C000526E252524255B52772D25252524526E33
:1006D0006E2D2525252500000000000000009B4907
:1006E000000000000000A49B9200000000002564B0
:1006F000934900000000652E9B52000000006D250C
:100700006552000000006D2D6552000000006E2E45
:10071000645200000000000000000000495B00007F
:100720000000004A5B65000000005B9B6D2D00002F
:10073000005B5B2D2E250000525B2E2E1C09000154
:100740005B2D1C01091C005C5B014A65777F4A5BDD
:100750001C6E7F7777769B77776D656E6EA4776E6C
:100760006565655BA4B725255C52526DBFBF130953
:1007700049647FBFBFBF095C7F7FBFBFB7BF7F7FBB
:10078000777F7FB7BFBF77777F7F6EB7BFBF777F3A
:100790007F6E77BFBFBFB6FFFFFFBFBFB75BBFFFB7
:1007A000FFFFBFBFA464BFFFFFFFBFADA47FBFFFBC
:1007B000FFFFBFA4BF7FFFFFFFBFADBFBFBFFFFFF6
:1007C000FFB6BFBFBF77FFFFF7BFBFBF7777FFFFA2
:1007D000FFBFBFBF64526D7F6E2E2D2D256E7F76BD
:1007E0006E6E6E2E2565777777762E1C25247F77A3
:1007F0006E251C251C1B776525251C090A5B6E6E62
:100800001C09492564645B494A6E7F645C00537728
:10081000BF775B5C00006E255B4A000000001C1B7C
:100820005B0000000000245B5300000000005B5CE4
:100830000000000000006400000000000000000054
:1008400000000000000000000000000000000000A8
:100850000000000000005B5C7FBF777677775C6DFF
:100860007FB7777777775C6D7FBF777777BF5C648B
:10087000BFBFBFBFBF7F0A5C6EBFBFBFBF76006593
:10088000646DBFBFBFBF00005B6D646DADB600009F
:100890000000125B646D777F6E6E77BFBFBF7F769F
:1008A0006D7677BFBFBF776D6E767FBFBFBF6D6E52
:1008B000767FBFB7ADF676BFBF76A4ADFFFFBFB6FC
:1008C00064ADFFFFFFFFB6ADBFFFFFFFFFF6ADB6A4
:1008D000AD645B520000FFFFBFBFAD5B64BFFFFFB5
:1008E000B6ADADBFFFBFFFF6FFFFFFFFBF64FFFF69
:1008F000FFFFBFB6765BFFFFFFBFBF5B0000FFFFE0
:10090000FF5C00000000A4000000000000000000E8
:10091000000000000000BFBF645C5C0000006E5C73
:100920006549000000006D5B000000000000000051
:1009300000000000000000000000000000000000B7
:1009400000000000000000000000000000000000A7
:10095000000000000000050004000000010002008B
:1009600003000400050006000700080009000A0053
:100970000B000C000D0000000E000F001000110015
:1009800012000500030000001300140015001600FB
:100990001700180019001A001B001C001D001E0083
:1009A0001F00000000408891D2E4ADB5B6BEBFFF85
:1009B000020002000C000D001C001D0002000200DD
:1009C0000C000D001E001F00020002000C000D00B4
:1009D00020002100020002000E000F002000210074
:1009E00002000200100011001C001D0002000200A5
:1009F000120013001C001D00020002001200130070
:100A00002200230002000200120013002000210037
:100A1000020002001400150024002500020002005C
:100A20001600150026002500020002001700150020
:100A300027002500020002001700180027002800E8
:100A40000200020019001A0029002A000200020018
:100A500014001A0024002A000200020014001B00E7
:100A600024002B000200020017001A0027002A00B1
:100A7000020002002C002D00400041000200020094
:100A80000100010001000100020002002E002F0001
:100A900042004300020002003000310044004500E3
:100AA000020002003200330046004700020002004C
:100AB00034003500460047000200020036003700CF
:100AC0004800490002000200320033004A004B0097
:100AD00002000200320033004C004D000200020010
:100AE000360037004A004B0002000200380039008F
:100AF0004E004F0002000200380039005000510043
:100B0000020002003A003B005000510002000200C7
:100B10003C003D004E004F00020002003E003F003E
:100B20004E004F00020002003C003D00500051000A
:100B300002000200520053005E005F00020002004B
:100B40005400530060005F00020002005400550092
:100B50006000610002000200520056005E00620068
:100B600002000200520057005E0063000200020013
:100B70005400560060006200020002005800590054
:100B8000640065000200020058005A00640066001C
:100B9000020002005B005A006700660002000200CB
:100BA0005C00590068006500020002005D00590009
:100BB00069006500020002005C005A0068006600DF
:100BC000020002002E002F007600770002000200D3
:100BD0002E002F0078007900020002006A006B00EE
:100BE00078007900020002006C006D0042004300B2
:100BF000020002006E006F0042004300020002008B
:100C00006E006F007A007B00020002006E006F0031
:100C10007800790002000200700031007C0045007D
:100C200002000200710031007D0045000200020058
:100C3000710072007D007E000200020073007400EB
:100C40007F00800002000200300074004400800039
:100C50000200020030007500440081000200020022
:100C6000710074007D008000020002008200830099
:100C7000920093000200020084008500920093001D
:100C8000020002008600870092009300020002002A
:100C90008600870094009500020002008800890009
:100CA00096009700020002008200830096009700E1
:100CB00002000200820083009800990002000200F6
:100CC0008600870096009700020002008A008B00D1
:100CD0009A009B00020002008C008B009C009B008D
:100CE000020002008D008B009D009B0002000200AC
:100CF0008D008E009D009E00020002008F0090007B
:100D00009F00A000020002008A0090009A00A0004C
:100D1000020002008A0091009A00A1000200020075
:100D20008D0090009D00A00002000200A200830040
:100D30009A00AA0002000200A30083009C00AA00FF
:100D400002000200A40083009D00AB00020002002C
:100D5000A50089009D00AC0002000200A6008700EB
:100D60009F00AC0002000200A70087009A00AD00BF
:100D700002000200A80085009A00AA0002000200FA
:100D8000A9008700AE00AC0002000200AF00B00076
:100D9000BA009B0002000200B100B200BA009B0042
:100DA000020002008600B300BB009B0002000200AC
:100DB0008600B400BC00BD00020002008800B5003F
:100DC000BC00A00002000200B600B700BC00A000FA
:100DD00002000200AF00B800BA00A1000200020049
:100DE0008600B900BC00A00002000200BE00BF00E7
:100DF000C600C70002000200BE00BF00C800C90054
:100E000002000200C000BF009600CA0002000200FB
:100E1000C100C2009600CB0002000200C100C30066
:100E2000CC00CD0002000200C400C300C600CE000A
:100E300002000200BE00C500C600CF000200020092
:100E4000C100C3009600D00002000200D100D20011
:100E5000D700930002000200D300D200D800930014
:100E6000020002008D00D400D900930002000200AD
:100E70008D00D500DA009500020002008F00D50039
:100E8000DB00970002000200D600D500DC009700CE
:100E900002000200D100D200DD0099000200020031
:100EA0008D00D500DE00970002000200DF00E000A8
:100EB000EF00F00002000200E100E000F100F000AD
:100EC00002000200E200E000F200F0000200020076
:100ED000E200E300F200F30002000200E400E5009B
:100EE000F400F50002000200DF00E500EF00F5006D
:100EF00002000200DF00E600EF00F6000200020040
:100F0000E200E500F200F50002000200E700E80060
:100F1000EF00F00002000200E900E800F100F0003C
:100F200002000200EA00E800F200F0000200020005
:100F3000EA00EB00F200F30002000200EC00ED001A
:100F4000F400F50002000200E700ED00EF00F500FC
:100F500002000200E700EE00EF00F60002000200CF
:100F6000EA00ED00F200F50002000200F700F800D0
:100F7000EF00F00002000200F900F800F100F000BC
:100F800002000200FA00F800F200F0000200020085
:100F9000FA00FB00F200F30002000200FC00FD007A
:100FA000F400F50002000200F700FD00EF00F5007C
:100FB00002000200F700FE00EF00F600020002004F
:100FC000FA00FD00F200F50002000200DF00FF0061
:100FD0000301040102000200E100FF000501040119
:100FE00002000200E200FF0006010401020002000C
:100FF000E20000010601070102000200E400010115
:101000000801090102000200DF00010103010901DA
:1010100002000200DF00020103010A0102000200D7
:10102000E200010106010901020002000B010C01AE
:1010300003010401020002000D010C01050104017D
:10104000020002000E010C01060104010200020070
:101050000E010F010601070102000200100111013B
:1010600008010901020002000B011101030109013D
:10107000020002000B01120103010A01020002003A
:101080000E0111010601090102000200F700F8003B
:101090000301040102000200F900F8000501040147
:1010A00002000200FA00F80006010401020002003A
:1010B000FA00FB000601070102000200FC00FD002F
:1010C0000801090102000200F700FD000301090107
:1010D00002000200F700FE0003010A010200020004
:1010E000FA00FD00060109010200020013011401CB
:1010F00092001901020002001301140198009900E6
:101100000200020013011401960097000200020081
:101110001501160196009700020002001701180140
:101120009600970002000200820083001A011B0152
:1011300002000200840085001A011B010200020067
:10114000860087001A011B0102000200860087004A
:101150001C011D0102000200860087001E011F0104
:101160000200020020018B0027019B000200020008
:101170002101C3002801A000020002002001C300D9
:101180002701A00002000200200122012701A10086
:10119000020002002301C3002901A0000200020096
:1011A0008A0024012A012B01020002008C00240184
:1011B0002C012B01020002008D0024012D012B01C6
:1011C000020002008D0025012D012E010200020007
:1011D0008D0026012D012F01020002003001310196
:1011E00049014A0102000200320133014B014C0166
:1011F00002000200300134014D014C0102000200E6
:10120000350136014B014E01020002003201370167
:101210004F014A010200020038013301500151011F
:101220000200020039013A0152015301020002009A
:101230003B013C0154015501020002003D013E0109
:1012400056015701020002003F01400158015901B7
:1012500002000200410142015A015B01020002004A
:10126000430144015C015D010200020045014601A9
:101270005E015F0102000200470148016001610157
:10128000000000000000000000000000000000005E
:10129000000000000000000000000000000000004E
:1012A000000000000000000000000000000000003E
:1012B000000000000000000000000000000000002E
:1012C0000A0A0A0A0A0A0A0A0A0A0A0A0A0A0A0A7E
:1012D0000A0A0A0A0A0A0A0A0A0A0A0A0A0A0A0A6E
:1012E0000A0A0A0A0A0A0A0A0A0A0A0A0A0A0A0A5E
:1012F0000A0A0A0A0A0A0A0A0A0A0A0A0A0A0A0A4E
:10130000000A0A0A000A0A0A0A000A000A00000083
:101310000A000A000A0A0A0A0A000A000A00000073
:10132000000A0A0A000A0A0A0A0000000A000A0063
:101330000A0A0A0A0A000A000A0000000A000A0053
:101340000027FF27270A0A000027FF27270A0A008D
:101350000027FF27270A0A000027FF27270A0A007D
:101360000027FF27270A0A000027FF27270A0A006D
:101370000027FF27270A0A000027FF27270A0A005D
:101380000000000000000000272727272727272725
:10139000FFFFFFFFFFFFFFFF27272727272727271D
:1013A00027272727272727270A0A0A0A0A0A0A0AB5
:1013B0000A0A0A0A0A0A0A0A0000000000000000DD
:1013C0000000000000000000000027272727272733
:1013D000002708FFFFFFFFFF0027FF082727272719
:1013E0000027FF27082727270027FF2727000A0AAB
:1013F0000027FF27270A000A0027FF27270A0A00DD
:1014000000000000000000002727272727270000F2
:10141000FFFFFFFFFF000A0027272727000A0A0017
:1014200027272700270A0A000A0A0027270A0A0096
:101430000A00FF27270A0A000027FF27270A0A00B9
:101440000027FF27270A0A000027FF27270A00276F
:101450000027FF272700FFFF0027FF270827272750
:101460000027FF00272727270027000A0A0A0A0A61
:1014700000000A0A0A0A0A0A000000000000000030
:101480000027FF27270A0A002700FF27270A0A004C
:10149000FFFF0027270A0A0027272700270A0A003C
:1014A00027272727000A0A000A0A0A0A0A000A0050
:1014B0000A0A0A0A0A0A00000000000000000000F0
:1014C0000000FF27272700000000FF272727000034
:1014D0000000FF27272700000000FF272727000024
:1014E0000000FF27272700000000FF272727000014
:1014F0000000FF27272700000000FF272727000004
:1015000000000000000000000000FFFFFFFFFF00E0
:1015100000FFFF000000000000FFFFFFFFFF0000D2
:101520000000FFFFFFFFFF000000000000FFFF00C2
:1015300000FFFFFFFFFF00000000000000000000B0
:10154000000000000000000000FFFFFFFFFFFF00A1
:1015500000FFFF000000000000FFFFFFFF00000091
:1015600000FFFF000000000000FFFF00000000007F
:1015700000FFFFFFFFFFFF00000000000000000071
:101580000000000000ADFFAD005B5B5B00000000F1
:10159000005BADADAD00ADFF005BAD5B5B00ADFFD3
:1015A000005BAD5B00ADADFF005BAD00ADADFFAD71
:1015B000005B00ADADFFFFAD005B00ADADFFFFAD6B
:1015C000ADADAD5B000000000000000000005B5B03
:1015D000ADAD5B0000AD005BADAD5B00005B005BE3
:1015E000ADADAD5B0000005BADADAD5B5B00000081
:1015F000ADADADAD5B5B0000ADADADAD5B5B000017
:101600000000000000ADFFAD005B5B5B0000000070
:10161000005BADADAD00ADFF005BAD5B5B00ADFF52
:10162000005BAD5B00FFFFFF005BAD00FFFFFFFF56
:10163000005B00FFFFFFFFFF005B00FFFFFFFFFFFE
:10164000ADADAD5B000000000000000000005B5B82
:10165000ADAD5B0000AD005BADAD5B00005B005B62
:10166000FFFFFF5B0000005BFFFFFFFF5B00000070
:10167000FFFFFFFFFF5B0000FFFFFFFFFF5B0000BE
:101680000000000000FFFFFF005B5B5B000000004C
:10169000005BADADAD00FFFF005BAD5B5B00FFFF2E
:1016A000005BAD5B00ADADFF005BAD00ADADFFAD70
:1016B000005B00ADADFFFFAD005B00ADADFFFFAD6A
:1016C000FFFFFF5B000000000000000000005B5B0C
:1016D000FFFF5B0000AD005BFFFF5B00005B005B9A
:1016E000ADADAD5B0000005BADADAD5B5B00000080
:1016F000ADADADAD5B5B0000ADADADAD5B5B000016
:101700000000000000FFFFFF005B5B5B00000000CB
:10171000005BADADAD00FFFF005BAD5B5B00FFFFAD
:10172000005BAD5B00FFFFFF005BAD00FFFFFFFF55
:10173000005B00FFFFFFFFFF005B00FFFFFFFFFFFD
:10174000FFFFFF5B000000000000000000005B5B8B
:10175000FFFF5B0000AD005BFFFF5B00005B005B19
:10176000FFFFFF5B0000005BFFFFFFFF5B0000006F
:10177000FFFFFFFFFF5B0000FFFFFFFFFF5B0000BD
:101780000000000000000000005B5B5B5B5B5B5BDC
:10179000005BADADADAD0000005BAD5B5B00ADAD22
:1017A0000000AD5B00ADADADAD000000ADADFFFF25
:1017B000FF00ADADADFFFFFFAD00FFFFFFADADAD75
:1017C00000000000000000005B5B5B5B5B5B5B5B41
:1017D0000000ADADADAD005BADAD005B5B5B005B34
:1017E000ADADAD005B5B0000FFFFADAD000000AD37
:1017F000FFFFFFADADAD5BFFADADADFFFFFF5BAD7F
:101800000000000000000000005B5B5B5B5B5B5B5B
:10181000005BADADADAD0000005BAD5B5B00ADADA1
:101820000000AD5B00ADADADFF000000ADADFFFF52
:10183000FF00FFFFADFFFFFFFF00FFFFFFADADADFE
:101840000000000000000000005B5B5B5B5B5B5B1B
:10185000005BADADADAD0000005BAD5B5B00FFFFBD
:101860000000AD5B00FFFFFFFF000000FFFFFFFF78
:10187000FF00FFFFFFFFFFFFFF00FFFFFFFFFFFF76
:1018800000000000000000005B5B5B5B5B5B5B5B80
:101890000000ADADADAD005BFFFF005B5B5B005BCF
:1018A000FFFFFF005B5B0000FFFFFFFF000000ADDC
:1018B000FFFFFFFFADAD5BFFFFFFFFFFFFFF5BAD76
:1018C0000000000000000000005B5B5B5B5B5B5B9B
:1018D000005BADADADAD0000005BAD5B5B00FFFF3D
:1018E0000000AD5B00FFFFFFAD000000FFFFFFFF4A
:1018F000FF00ADADFFFFFFFFAD00FFFFFFFFFFFFEC
:1019000000000000000000005B5B5B5B5B5B5B5BFF
:101910000000ADADADAD005BFFFF005B5B5B005B4E
:10192000FFFFFF005B5B0000FFFFFFFF000000FF09
:10193000FFFFFFFFFFFF5BFFFFFFFFFFFFFF5BFFFF
:1019400000000000000000005B5B5B5B5B5B5B5BBF
:101950000000ADADADAD005BADAD005B5B5B005BB2
:10196000ADADAD005B5B0000FFFFADAD000000FF63
:10197000FFFFFFADFFFF5BFFADADADFFFFFF5BFF07
:10198000005B00ADADFFFFAD005B00ADADFFFFAD97
:10199000005BAD00ADADFFAD005BAD5B00ADADFF7D
:1019A000005BAD5B5B00ADFF005BAD5B5B00ADFF63
:1019B000005B000000005B5B005B5B5B00ADFFADAC
:1019C000ADADADAD5B5B0000ADADADAD5B5B000043
:1019D000ADADAD5B5B000000ADADAD5B0000005B8D
:1019E000ADAD5B000000005BADAD5B00005B005B7C
:1019F0005B5B5B000000005BADADAD5B00005B5B63
:101A0000005B00ADADFFFFAD005B00ADADFFFFAD16
:101A1000005BAD00ADADFFAD005BAD5B00ADADFFFC
:101A2000005BAD5B5B00FFFF005BAD5B5B00FFFF3E
:101A3000005B000000005B5B005B5B5B00FFFFFF87
:101A4000ADADADAD5B5B0000ADADADAD5B5B0000C2
:101A5000ADADAD5B5B000000ADADAD5B0000005B0C
:101A6000FFFF5B000000005BFFFF5B00005B005BB3
:101A70005B5B5B000000005BFFFFFF5B00005B5BEC
:101A8000005B00FFFFFFFFFF005B00FFFFFFFFFFAA
:101A9000005BAD00FFFFFFFF005BAD5B00FFFFFFE2
:101AA000005BAD5B5B00FFFF005BAD5B5B00FFFFBE
:101AB000005B000000005B5B005B5B5B00FFFFFF07
:101AC000FFFFFFFFFF5B0000FFFFFFFFFF5B00006A
:101AD000FFFFFFFF5B000000FFFFFF5B0000005BFC
:101AE000FFFF5B000000005BFFFF5B00005B005B33
:101AF0005B5B5B000000005BFFFFFF5B00005B5B6C
:101B0000005B00FFFFFFFFFF005B00FFFFFFFFFF29
:101B1000005BAD00FFFFFFFF005BAD5B00FFFFFF61
:101B2000005BAD5B5B00ADFF005BAD5B5B00ADFFE1
:101B3000005B000000005B5B005B5B5B00ADFFAD2A
:101B4000FFFFFFFFFF5B0000FFFFFFFFFF5B0000E9
:101B5000FFFFFFFF5B000000FFFFFF5B0000005B7B
:101B6000ADAD5B000000005BADAD5B00005B005BFA
:101B70005B5B5B000000005BADADAD5B00005B5BE1
:101B8000AD00ADADADADADADAD00ADADADADADADDF
:101B9000AD005B5BADADADAD5B0000005B5BADADC3
:101BA00000000000005B5B5B0000AD5B00005B5B66
:101BB000005B000000000000005B5B5B5B5B000003
:101BC000ADADADADADAD5BADADADADADADAD5BADE9
:101BD000ADADADAD5B5B5BADADAD5B5B0000005B28
:101BE0005B5B5B00000000005B5B0000005B0000D3
:101BF000000000000000005B0000005B5B5B5B5BC3
:101C0000FF00FFFFADADADADFF00FFFFADADADAD72
:101C1000FF005B5BADADADAD5B0000005B5BADADF0
:101C200000000000005B5B5B0000AD5B00005B5BE5
:101C3000005B000000000000005B5B5B5B5B000082
:101C4000FF00FFFFFFFFFFFFFF00FFFFFFFFFFFFA2
:101C5000FF005B5BFFFFFFFF5B0000005BFFFFFF20
:101C600000000000005BFFFF0000AD5B00005B5B5D
:101C7000005B000000000000005B5B5B5B5B000042
:101C8000FFFFFFFFADAD5BADFFFFFFFFADAD5BAD98
:101C9000FFFFFFFF5B5B5BADFFFFFF5B0000005BD7
:101CA000FFFF5B00000000005B5B0000005B0000CA
:101CB000000000000000005B0000005B5B5B5B5B02
:101CC000AD00ADADFFFFFFFFAD00ADADFFFFFFFF0E
:101CD000AD005B5BFFFFFFFF5B0000005BFFFFFFF2
:101CE00000000000005BFFFF0000AD5B00005B5BDD
:101CF000005B000000000000005B5B5B5B5B0000C2
:101D0000FFFFFFFFFFFF5BFFFFFFFFFFFFFF5BFF2B
:101D1000FFFFFFFF5B5B5BFFFFFFFF5B0000005B04
:101D2000FFFF5B00000000005B5B0000005B000049
:101D3000000000000000005B0000005B5B5B5B5B81
:101D4000ADADADADFFFF5BFFADADADADFFFF5BFF7B
:101D5000ADADADAD5B5B5BFFADAD5B5B0000005B54
:101D60005B5B5B00000000005B5B0000005B000051
:101D7000000000000000005B0000005B5B5B5B5B41
:101D80000000000000000000005B5B5B5B5B5B5BD6
:101D9000005BADADADADADAD005BAD5B5B5B5B5B0B
:101DA000005BAD5B5B5B5B5B005BAD5B5B5B5B5B95
:101DB000005BAD5B5B5B5B5B005BAD5B5B5B5B5B85
:101DC00000000000000000005B5B5B5B5B5B5B5B3B
:101DD000ADADADADADAD005B5B5B5B5B5B5B005B1D
:101DE0005B5B5B5B5B5B005B5B5B5B5B5B5B005BF9
:101DF0005B5B5B5B5B5B005B5B5B5B5B5B5B005BE9
:101E00000000000000ADFFAD005B5B5B0000000068
:101E1000005BADADAD00ADFF005BAD0000000000AC
:101E2000005BAD00ADADFFFF005BAD00ADADFF00F1
:101E3000005BAD00ADADFFFF005BAD00ADADFF5B86
:101E4000ADADAD5B000000000000000000005B5B7A
:101E5000ADAD5B0000AD005B000000000000005B6A
:101E6000ADADAD5B5B00005B0000AD5B5B00005B9C
:101E7000ADADAD5B5B00005B5B5BAD5B5B00005BD6
:101E80000000000000000000005B5B5B5B5B5B5BD5
:101E9000005BADADADADADAD005BAD0000000000D1
:101EA0000000AD00ADADADADAD000000ADADADAD70
:101EB000FF00AD00FFFFFFFFAD00FF00FF00FF5B75
:101EC00000000000000000005B5B5B5B5B5B5B5B3A
:101ED000ADADADADADAD005B00000000005B005BE3
:101EE000ADADADAD005B0000ADADADAD000000AD82
:101EF000FFFFFFFF00AD5BFF5BFF00FF00FF5BAD7F
:101F00000000000000000000005B5B5B5B5B5B5B54
:101F1000005BADADADADADAD005BAD5B5B5B5B00E4
:101F2000005BAD5B5B5B00AD005BAD5B5B00ADFF81
:101F3000005BAD5B5B00ADFF005BAD5B5B00ADFFCD
:101F400000000000000000005B5B5B5B5B5B5B5BB9
:101F5000ADADADADADAD005B00005B5B5B5B005B51
:101F6000ADAD005B5B5B005BADAD5B005B5B005BE5
:101F7000ADAD5B00005B005BADAD5B00005B005B8B
:101F80000000000000000000005B5B5B5B5B5B5BD4
:101F9000005BADADADADADAD005BAD5B5B5B5B0064
:101FA000005BAD5B5B5B00FF005BAD5B5B00FFFF5D
:101FB000005BAD5B5B00FFFF005BAD5B5B00ADFFFB
:101FC00000000000000000005B5B5B5B5B5B5B5B39
:101FD000ADADADADADAD005B00005B5B5B5B005BD1
:101FE000FFFF005B5B5B005BFFFF5B005B5B005B1D
:101FF000FFFF5B00005B005BADAD5B00005B005B67
:102000000000000000000000005B5B5B5B5B5B5B53
:10201000005BADADADADADAD005BAD5B5B5B5B00E3
:10202000005BAD5B5B5B00FF005BAD5B5B00FFFFDC
:10203000005BAD5B5B00FFFF005BAD5B5B00FFFF28
:1020400000000000000000005B5B5B5B5B5B5B5BB8
:10205000ADADADADADAD005B00005B5B5B5B005B50
:10206000FFFF005B5B5B005BFFFF5B005B5B005B9C
:10207000FFFF5B00005B005BFFFF5B00005B005B42
:102080000000000000ADFFAD005B5B5B00000000E6
:10209000005BADADAD00ADFF005BAD5B5B00ADFFC8
:1020A000005BAD5B5B00ADFF005BAD5B5B00ADFF5C
:1020B000005BAD5B5B00ADFF005BAD5B5B00ADFF4C
:1020C000ADADAD5B000000000000000000005B5BF8
:1020D000ADAD5B0000AD005BADAD5B00005B005BD8
:1020E000ADAD5B00005B005BADAD5B00005B005B1A
:1020F000ADAD5B00005B005BADAD5B00005B005B0A
:102100000000000000ADFFAD005B5B5B0000000065
:10211000005BADADAD00ADFF005BAD5B5B00ADFF47
:10212000005BAD5B5B00FFFF005BAD5B5B00FFFF37
:10213000005BAD5B5B00FFFF005BAD5B5B00FFFF27
:10214000ADADAD5B000000000000000000005B5B77
:10215000ADAD5B0000AD005BADAD5B00005B005B57
:10216000FFFF5B00005B005BFFFF5B00005B005B51
:10217000FFFF5B00005B005BFFFF5B00005B005B41
:102180000000000000FFFFFF005B5B5B0000000041
:10219000005BADADAD00FFFF005BAD5B5B00FFFF23
:1021A000005BAD5B5B00FFFF005BAD5B5B00FFFFB7
:1021B000005BAD5B5B00FFFF005BAD5B5B00FFFFA7
:1021C000FFFFFF5B000000000000000000005B5B01
:1021D000FFFF5B0000AD005BFFFF5B00005B005B8F
:1021E000FFFF5B00005B005BFFFF5B00005B005BD1
:1021F000FFFF5B00005B005BFFFF5B00005B005BC1
:102200000000000000FFFFFF005B5B5B00000000C0
:10221000005BADADAD00FFFF005BAD5B5B00FFFFA2
:10222000005BAD5B5B00ADFF005BAD5B5B00ADFFDA
:10223000005BAD5B5B00ADFF005BAD5B5B00ADFFCA
:10224000FFFFFF5B000000000000000000005B5B80
:10225000FFFF5B0000AD005BFFFF5B00005B005B0E
:10226000ADAD5B00005B005BADAD5B00005B005B98
:10227000ADAD5B00005B005BADAD5B00005B005B88
:10228000005BAD5B5B5B5B5B005BAD5B5B5B5B5BB0
:10229000005BAD5B5B5B5B5B005BAD5B5B5B5B5BA0
:1022A000005BAD5B5B5B5B5B005BAD5B5B5B5B5B90
:1022B000005B000000000000005B5B5B5B5B5B5B46
:1022C0005B5B5B5B5B5B005B5B5B5B5B5B5B005B14
:1022D0005B5B5B5B5B5B005B5B5B5B5B5B5B005B04
:1022E0005B5B5B5B5B5B005B5B5B5B5B5B5B005BF4
:1022F000000000000000005B5B5B5B5B5B5B5B5BAB
:10230000005BAD00ADADFF5B005BAD00ADADFFFFB1
:10231000005BAD00ADADFF00005BAD00ADADFFFFFC
:10232000005BAD0000000000005BAD5B5B00ADFF3B
:10233000005B000000005B5B005B5B5B00ADFFAD22
:102340005B5BAD5B5B00005BADADAD5B5B00005B01
:102350000000AD5B5B00005BADADAD5B5B00005BA7
:10236000000000000000005BADAD5B000000005B02
:102370005B5B5B000000005BADADAD5B00005B5BD9
:10238000AD00AD00AD00AD5BAD00AD00AD00AD5B2F
:10239000AD005B00ADADADAD5B0000005B5B5B5BBA
:1023A000000000005B5B5B5B0000AD000000000014
:1023B000005B000000000000005B5B5B5B5B5B5B45
:1023C0005BAD00AD00AD5BAD5BAD00AD00AD5BAD39
:1023D000ADADADAD005B5BAD5B5B5B5B0000005B1F
:1023E0005B5B5B5B00000000000000000000000081
:1023F000000000000000005B5B5B5B5B5B5B5B5BAA
:10240000005BAD5B5B00ADFF005BAD5B5B00ADFFF8
:10241000005BAD5B5B00ADFF005BAD5B5B00ADFFE8
:10242000005BAD5B5B00ADFF005BAD5B5B00ADFFD8
:10243000005B000000005B5B005B5B5B00ADFFAD21
:10244000ADAD5B00005B005BADAD5B00005B005BB6
:10245000ADAD5B00005B005BADAD5B00005B005BA6
:10246000ADAD5B00005B005BADAD5B00005B005B96
:102470005B5B5B000000005BADADAD5B00005B5BD8
:10248000005BAD5B5B00FFFF005BAD5B5B00FFFFD4
:10249000005BAD5B5B00FFFF005BAD5B5B00FFFFC4
:1024A000005BAD5B5B00ADFF005BAD5B5B00ADFF58
:1024B000005B000000005B5B005B5B5B00ADFFADA1
:1024C000FFFF5B00005B005BFFFF5B00005B005BEE
:1024D000FFFF5B00005B005BFFFF5B00005B005BDE
:1024E000ADAD5B00005B005BADAD5B00005B005B16
:1024F0005B5B5B000000005BADADAD5B00005B5B58
:10250000005BAD5B5B00FFFF005BAD5B5B00FFFF53
:10251000005BAD5B5B00FFFF005BAD5B5B00FFFF43
:10252000005BAD5B5B00FFFF005BAD5B5B00FFFF33
:10253000005B000000005B5B005B5B5B00FFFFFF7C
:10254000FFFF5B00005B005BFFFF5B00005B005B6D
:10255000FFFF5B00005B005BFFFF5B00005B005B5D
:10256000FFFF5B00005B005BFFFF5B00005B005B4D
:102570005B5B5B000000005BFFFFFF5B00005B5BE1
:10258000005BAD5B5B00ADFF005BAD5B5B00ADFF77
:10259000005BAD5B5B00ADFF005BAD5B5B00ADFF67
:1025A000005BAD5B5B00FFFF005BAD5B5B00FFFFB3
:1025B000005B000000005B5B005B5B5B00FFFFFFFC
:1025C000ADAD5B00005B005BADAD5B00005B005B35
:1025D000ADAD5B00005B005BADAD5B00005B005B25
:1025E000FFFF5B00005B005BFFFF5B00005B005BCD
:1025F0005B5B5B000000005BFFFFFF5B00005B5B61
:10260000005BAD5B5B00ADFF005BAD5B5B00ADFFF6
:10261000005BAD5B5B00ADFF005BAD5B5B5B00AD8A
:10262000005BAD5B5B5B5B00005BAD5B5B5B5B5B67
:10263000005B000000000000005B5B5B5B5B5B5BC2
:10264000ADAD5B00005B005BADAD5B00005B005BB4
:10265000ADAD5B00005B005BAD5B0000005B005B51
:10266000000000005B5B005B0000005B5B5B005BED
:10267000000000000000005B5B5B5B5B5B5B5B5B27
:10268000005BAD5B5B00FFFF005BAD5B5B00FFFFD2
:10269000005BAD5B5B00FFFF005BAD5B5B5B00FF66
:1026A000005BAD5B5B5B5B00005BAD5B5B5B5B5BE7
:1026B000005B000000000000005B5B5B5B5B5B5B42
:1026C000FFFF5B00005B005BFFFF5B00005B005BEC
:1026D000FFFF5B00005B005BFF5B0000005B005BDB
:1026E000000000005B5B005B0000005B5B5B005B6D
:1026F000000000000000005B5B5B5B5B5B5B5B5BA7
:102700000000000000000000005B5B5B5B5B5B5B4C
:10271000005BADADADADADAD005BAD5B5B5B5B5B81
:10272000005BAD5B5B5B5B5B005BAD5B5B0000001C
:10273000005BAD5B00ADADAD005BAD00ADFFFFFF7D
:1027400000000000000000005B5B5B5B5B5B5B5BB1
:10275000ADADADADADAD005B5B5B5B5B5B5B005B93
:102760005B5B5B5B5B5B000000000000000000AD9A
:10277000ADADADADADAD5BFFFFFFFFFFFFFF5BADEF
:102780000000000000000000005B5B5B5B5B5B5BCC
:10279000005BADADADADADAD005BAD5B5B5B5B5B01
:1027A000005BAD5B5B5B5B5B005BAD5B5B0000009C
:1027B000005BAD5B00FFFFFF005BAD00FFFFFFFFB5
:1027C00000000000000000005B5B5B5B5B5B5B5B31
:1027D000ADADADADADAD005B5B5B5B5B5B5B005B13
:1027E0005B5B5B5B5B5B000000000000000000AD1A
:1027F000FFFFFFFFADAD5BFFFFFFFFFFFFFF5BAD27
:1028000000000000000000005B5B5B5B5B5B5B5BF0
:10281000ADADADADADAD005B5B5B5B5B5B5B005BD2
:102820005B5B5B5B5B5B5B000000000000005BFFD1
:10283000FFFFFFFFFFFF5BFFFFFFFFFFFFFF5BFFF0
:1028400000000000000000005B5B5B5B5B5B5B5BB0
:10285000ADADADADADAD005B5B5B5B5B5B5B005B92
:102860005B5B5B5B5B5B5B000000000000005BFF91
:10287000ADADADADFFFF5BFFFFFFFFFFFFFF5BFFF8
:102880000000000000000000005B5B5B5B5B5B5BCB
:10289000005BADADADADADAD005BAD5B5B5B5B5B00
:1028A0000000AD5B5B5B5B5BAD0000000000000007
:1028B000FF00ADADADADADADAD00FFFFFFFFFFFF64
:1028C00000000000000000005B5B5B5B5B5B5B5B30
:1028D000ADADADADADAD005B5B5B5B5B5B5B005B12
:1028E0005B5B5B5B5B5B005B0000005B5B5B005BFF
:1028F000ADADAD00005B005BFFFFFFAD0000005B16
:1029000000000000000000005B5B5B5B5B5B5B5BEF
:10291000ADADADADADAD005B5B5B5B5B5B5B005BD1
:102920005B5B5B5B5B5B005B0000005B5B5B005BBE
:10293000FFFFFF00005B005BFFFFFFFF0000005B8D
:102940000000000000000000005B5B5B5B5B5B5B0A
:10295000005BADADADADADAD005BAD5B5B5B5B5B3F
:102960000000AD5B5B5B5B5BAD0000000000000046
:10297000FF00ADADFFFFFFFFAD00FFFFFFFFFFFF5B
:102980000000000000000000005B5B5B5B5B5B5BCA
:10299000005BADADADADADAD005BAD5B5B5B5B5BFF
:1029A0000000AD5B5B5B5B5BFF00000000000000B4
:1029B000FF00FFFFFFFFFFFFFF00FFFFFFFFFFFF25
:1029C0000000000000000000005B5B5B5B5B5B5B8A
:1029D000005BADADADADADAD005BAD5B5B5B5B5BBF
:1029E0000000AD5B5B5B5B5BFF0000000000000074
:1029F000FF00FFFFADADADADFF00FFFFFFFFFFFF2D
:102A0000005BAD00ADADADAD005BAD00ADADADAD4E
:102A1000005BAD00005B5B5B005BAD5B000000003A
:102A2000005BAD5B5B000000005BAD5B5B5B5B5B19
:102A3000005B000000000000005B5B5B5B5B5B5BBE
:102A4000ADADADADADAD5BADADADADADADAD5BAD5A
:102A50005B5B5B5B5B5B5BAD000000000000005BF1
:102A600000000000000000005B5B5B5B5B5B000044
:102A7000000000000000005B5B5B5B5B5B5B5B5B23
:102A8000005BAD00FFFFFFFF005BAD00FFFFFFFF3E
:102A9000005BAD00005B5B5B005BAD5B00000000BA
:102AA000005BAD5B5B000000005BAD5B5B5B5B5B99
:102AB000005B000000000000005B5B5B5B5B5B5B3E
:102AC000FFFFFFFFADAD5BADFFFFFFFFADAD5BAD4A
:102AD0005B5B5B5B5B5B5BAD000000000000005B71
:102AE00000000000000000005B5B5B5B5B5B0000C4
:102AF000000000000000005B5B5B5B5B5B5B5B5BA3
:102B0000FFFFFFFFFFFF5BFFFFFFFFFFFFFF5BFF1D
:102B10005B5B5B5B5B5B5BFF000000000000005BDE
:102B200000000000000000005B5B5B5B5B5B000083
:102B3000000000000000005B5B5B5B5B5B5B5B5B62
:102B4000ADADADADFFFF5BFFADADADADFFFF5BFF6D
:102B50005B5B5B5B5B5B5BFF000000000000005B9E
:102B600000000000000000005B5B5B5B5B5B000043
:102B7000000000000000005B5B5B5B5B5B5B5B5B22
:102B8000AD00ADADADADADADAD00ADADADADADADCF
:102B9000AD005B5B5B5B5B5B5B000000000000000B
:102BA00000000000000000000000AD5B5B5B5B5BB1
:102BB000005B000000000000005B5B5B5B5B5B5B3D
:102BC000ADADADAD0000005BADADADAD0000005BE7
:102BD0005B5B5B000000005B00000000005B005BD3
:102BE000000000005B5B005B5B5B5B5B5B5B005B57
:102BF000000000000000005B5B5B5B5B5B5B5B5BA2
:102C0000FFFFFFFF0000005BFFFFFFFF0000005B16
:102C10005B5B5B000000005B00000000005B005B92
:102C2000000000005B5B005B5B5B5B5B5B5B005B16
:102C3000000000000000005B5B5B5B5B5B5B5B5B61
:102C4000AD00ADADFFFFFFFFAD00ADADFFFFFFFF7E
:102C5000AD005B5B5B5B5B5B5B000000000000004A
:102C600000000000000000000000AD5B5B5B5B5BF0
:102C7000005B000000000000005B5B5B5B5B5B5B7C
:102C8000FF00FFFFFFFFFFFFFF00FFFFFFFFFFFF52
:102C9000FF005B5B5B5B5B5B5B00000000000000B8
:102CA00000000000000000000000AD5B5B5B5B5BB0
:102CB000005B000000000000005B5B5B5B5B5B5B3C
:102CC000FF00FFFFADADADADFF00FFFFADADADADA2
:102CD000FF005B5B5B5B5B5B5B0000000000000078
:102CE00000000000000000000000AD5B5B5B5B5B70
:102CF000005B000000000000005B5B5B5B5B5B5BFC
:102D00000000000000ADFFAD005B5B5B0000000059
:102D1000005BADADAD00ADFF005BAD00000000009D
:102D2000005BAD00FFFFFFFF005BAD00FFFFFF009A
:102D3000005BAD00FFFFFFFF005BAD00FFFFFF5B2F
:102D4000ADADAD5B000000000000000000005B5B6B
:102D5000ADAD5B0000AD005B000000000000005B5B
:102D6000FFFFFFFF5B00005B0000FFFF5B00005BFD
:102D7000FFFFFFFF5B00005B5B5BFFFF5B00005B37
:102D80000000000000FFFFFF005B5B5B0000000035
:102D9000005BADADAD00FFFF005BAD0000000000CB
:102DA000005BAD00ADADFFFF005BAD00ADADFF0062
:102DB000005BAD00ADADFFFF005BAD00ADADFF5BF7
:102DC000FFFFFF5B000000000000000000005B5BF5
:102DD000FFFF5B0000AD005B000000000000005B37
:102DE000ADADAD5B5B00005B0000AD5B5B00005B0D
:102DF000ADADAD5B5B00005B5B5BAD5B5B00005B47
:102E00000000000000FFFFFF005B5B5B00000000B4
:102E1000005BADADAD00FFFF005BAD00000000004A
:102E2000005BAD00FFFFFFFF005BAD00FFFFFF0099
:102E3000005BAD00FFFFFFFF005BAD00FFFFFF5B2E
:102E4000FFFFFF5B000000000000000000005B5B74
:102E5000FFFF5B0000AD005B000000000000005BB6
:102E6000FFFFFFFF5B00005B0000FFFF5B00005BFC
:102E7000FFFFFFFF5B00005B5B5BFFFF5B00005B36
:102E80000000000000000000005B5B5B5B5B5B5BC5
:102E9000005BADADADADADAD005BAD0000000000C1
:102EA0000000AD00ADADADADFF000000ADADADAD0E
:102EB000FF00FF00FFFFFFFFFF00FF00FF00FF5BC1
:102EC0000000000000000000005B5B5B5B5B5B5B85
:102ED000005BADADADADADAD005BAD000000000081
:102EE0000000AD00FFFFFFFFFF000000FFFFFFFF3E
:102EF000FF00FF00FFFFFFFFFF00FF00FF00FF5B81
:102F000000000000000000005B5B5B5B5B5B5B5BE9
:102F1000ADADADADADAD005B00000000005B005B92
:102F2000FFFFFFFF005B0000FFFFFFFF000000ADA1
:102F3000FFFFFFFF00AD5BFF5BFF00FF00FF5BAD2E
:102F40000000000000000000005B5B5B5B5B5B5B04
:102F5000005BADADADADADAD005BAD000000000000
:102F60000000AD00FFFFFFFFAD000000FFFFFFFF0F
:102F7000FF00AD00FFFFFFFFAD00FF00FF00FF5BA4
:102F800000000000000000005B5B5B5B5B5B5B5B69
:102F9000ADADADADADAD005B00000000005B005B12
:102FA000FFFFFFFF005B0000FFFFFFFF000000FFCF
:102FB000FFFFFFFF00FF5BFF5BFF00FF00FF5BFF0A
:102FC00000000000000000005B5B5B5B5B5B5B5B29
:102FD000ADADADADADAD005B00000000005B005BD2
:102FE000ADADADAD005B0000ADADADAD000000FF1F
:102FF000FFFFFFFF00FF5BFF5BFF00FF00FF5BFFCA
:10300000005BAD00ADADFF5B005BAD00ADADFFFFA4
:10301000005BAD00ADADFF00005BAD00ADADFFFFEF
:10302000005BAD0000000000005BAD5B5B00FFFFDC
:10303000005B000000005B5B005B5B5B00FFFFFF71
:103040005B5BAD5B5B00005BADADAD5B5B00005BF4
:103050000000AD5B5B00005BADADAD5B5B00005B9A
:10306000000000000000005BFFFF5B000000005B51
:103070005B5B5B000000005BFFFFFF5B00005B5BD6
:10308000005BAD00FFFFFF5B005BAD00FFFFFFFFDC
:10309000005BAD00FFFFFF00005BAD00FFFFFFFF27
:1030A000005BAD0000000000005BAD5B5B00FFFF5C
:1030B000005B000000005B5B005B5B5B00FFFFFFF1
:1030C0005B5BFFFF5B00005BFFFFFFFF5B00005BE4
:1030D0000000FFFF5B00005BFFFFFFFF5B00005B8A
:1030E000000000000000005BFFFF5B000000005BD1
:1030F0005B5B5B000000005BFFFFFF5B00005B5B56
:10310000005BAD00FFFFFF5B005BAD00FFFFFFFF5B
:10311000005BAD00FFFFFF00005BAD00FFFFFFFFA6
:10312000005BAD0000000000005BAD5B5B00ADFF2D
:10313000005B000000005B5B005B5B5B00ADFFAD14
:103140005B5BFFFF5B00005BFFFFFFFF5B00005B63
:103150000000FFFF5B00005BFFFFFFFF5B00005B09
:10316000000000000000005BADAD5B000000005BF4
:103170005B5B5B000000005BADADAD5B00005B5BCB
:10318000FF00FF00AD00AD5BFF00FF00AD00AD5BD9
:10319000FF005B00ADADADAD5B0000005B5B5B5B5A
:1031A000000000005B5B5B5B0000AD000000000006
:1031B000005B000000000000005B5B5B5B5B5B5B37
:1031C000FF00FF00FF00FF5BFF00FF00FF00FF5B51
:1031D000FF005B00FFFFFFFF5B000000FFFFFFFF42
:1031E000000000005B5B5B5B0000AD0000000000C6
:1031F000005B000000000000005B5B5B5B5B5B5BF7
:103200005BFF00FF00AD5BAD5BFF00FF00AD5BADA2
:10321000FFFFFFFF005B5BADFFFFFFFF0000005BF8
:103220005B5B5B5B00000000000000000000000032
:10323000000000000000005B5B5B5B5B5B5B5B5B5B
:10324000AD00AD00FF00FF5BAD00AD00FF00FF5B18
:10325000AD005B00FFFFFFFF5B000000FFFFFFFF13
:10326000000000005B5B5B5B0000AD000000000045
:10327000005B000000000000005B5B5B5B5B5B5B76
:103280005BFF00FF00FF5BFF5BFF00FF00FF5BFFDA
:10329000FFFFFFFF005B5BFFFFFFFFFF0000005B26
:1032A0005B5B5B5B000000000000000000000000B2
:1032B000000000000000005B5B5B5B5B5B5B5B5BDB
:1032C0005BAD00AD00FF5BFF5BAD00AD00FF5BFFE2
:1032D000ADADADAD005B5BFF5B5B5B5B0000005BBE
:1032E0005B5B5B5B00000000000000000000000072
:1032F000000000000000005B5B5B5B5B5B5B5B5B9B
:10330000000000000098FF98001818180000000046
:1033100000189898980098FF00189818180098FFBF
:1033200000189818180098FF00189818180098FFAF
:1033300000189818180098FF00189818180098FF9F
:10334000989898180000000000000000000018186D
:1033500098981800009800189898180000180018FD
:10336000989818000018001898981800001800186D
:10337000989818000018001898981800001800185D
:103380000000000000FFFFFF0018181800000000F8
:10339000001898989800FFFF001898181800FFFF71
:1033A00000189818180098FF00189818180098FF2F
:1033B00000189818180098FF00189818180098FF1F
:1033C000FFFFFF18000000000000000000001818B8
:1033D000FFFF180000980018FFFF180000180018E1
:1033E00098981800001800189898180000180018ED
:1033F00098981800001800189898180000180018DD
:103400000000000000FFFFFF001818180000000077
:10341000001898989800FFFF001898181800FFFFF0
:10342000001898181800FFFF001898181800FFFFE0
:10343000001898181800FFFF001898181800FFFFD0
:10344000FFFFFF1800000000000000000000181837
:10345000FFFF180000980018FFFF18000018001860
:10346000FFFF180000180018FFFF180000180018D0
:10347000FFFF180000180018FFFF180000180018C0
:10348000000000000098FF980018181800000000C5
:1034900000189898980098FF00189818180098FF3E
:1034A000001898181800FFFF001898181800FFFF60
:1034B000001898181800FFFF001898181800FFFF50
:1034C00098989818000000000000000000001818EC
:1034D000989818000098001898981800001800187C
:1034E000FFFF180000180018FFFF18000018001850
:1034F000FFFF180000180018FFFF18000018001840
:103500000000000000000000001818181818181813
:1035100000189898989898980018981818181818DB
:1035200000009818181818189800000000000000F3
:10353000FF009898989898989800FFFFFFFFFFFF6A
:1035400000000000000000001818181818181818BB
:10355000989898989898001818181818181800181B
:103560001818181818180000000000000000009833
:1035700098989898989818FFFFFFFFFFFFFF1898FA
:103580000000000000000000001818181818181893
:10359000001898989898989800189818181818185B
:1035A0000000981818181818FF000000000000000C
:1035B000FF00FFFF98989898FF00FFFFFFFFFFFFB5
:1035C0000000000000000000001818181818181853
:1035D000001898989898989800189818181818181B
:1035E0000000981818181818FF00000000000000CC
:1035F000FF00FFFFFFFFFFFFFF00FFFFFFFFFFFFD9
:1036000000000000000000001818181818181818FA
:10361000989898989898001818181818181800185A
:103620001818181818180000000000000000009872
:10363000FFFFFFFFFF9818FFFFFFFFFFFFFF189836
:1036400000000000000000000018181818181818D2
:10365000001898989898989800189818181818189A
:1036600000009818181818189800000000000000B2
:10367000FF009898FFFFFFFF9800FFFFFFFFFFFF8D
:10368000000000000000000018181818181818187A
:1036900098989898989800181818181818180018DA
:1036A000181818181818180000000000000018FF5B
:1036B000FFFFFFFFFFFF18FFFFFFFFFFFFFF18FFE8
:1036C000000000000000000018181818181818183A
:1036D000989898989898001818181818181800189A
:1036E000181818181818180000000000000018FF1B
:1036F00098989898FFFF18FFFFFFFFFFFFFF18FF44
:1037000000189818180098FF00189818180098FFCB
:1037100000189818180098FF00189818180098FFBB
:1037200000189818180098FF00189818180098FFAB
:103730000018000000001818001818180098FF98CA
:103740009898180000180018989818000018001889
:103750009898180000180018989818000018001879
:103760009898180000180018989818000018001869
:1037700018181800000000189898982000001818D1
:10378000001898181800FFFF001898181800FFFF7D
:10379000001898181800FFFF001898181800FFFF6D
:1037A00000189818180098FF00189818180098FF2B
:1037B0000018000000001818001818180098FF984A
:1037C000FFFF180000180018FFFF1800001800186D
:1037D000FFFF180000180018FFFF1800001800185D
:1037E00098981800001800189898180000180018E9
:1037F0001818180000000018989898200000181851
:10380000001898181800FFFF001898181800FFFFFC
:10381000001898181800FFFF001898181800FFFFEC
:10382000001898181800FFFF001898181800FFFFDC
:1038300000180000000018180018181800FFFFFFFB
:10384000FFFF180000180018FFFF180000180018EC
:10385000FFFF180000180018FFFF180000180018DC
:10386000FFFF180000180018FFFF180000180018CC
:103870001818180000000018FFFFFF1800001818A3
:1038800000189818180098FF00189818180098FF4A
:1038900000189818180098FF00189818180098FF3A
:1038A000001898181800FFFF001898181800FFFF5C
:1038B00000180000000018180018181800FFFFFF7B
:1038C0009898180000180018989818000018001808
:1038D00098981800001800189898180000180018F8
:1038E000FFFF180000180018FFFF1800001800184C
:1038F0001818180000000018FFFFFF180000181823
:103900009800989898989898980098989898989867
:103910009800181818181818180000000000000067
:103920000000000000000000000098181818181887
:1039300000180000000000000018181818181818C7
:1039400098989898989818989898989898981898F7
:10395000181818181818189800000000000000180F
:1039600000000000000000001818181818180000C7
:10397000000000000000001818181818181818186F
:10398000FF00FFFF98989898FF00FFFF989898987D
:10399000FF00181818181818180000000000000080
:1039A0000000000000000000000098181818181807
:1039B0000018000000000000001818181818181847
:1039C000FF00FFFFFFFFFFFFFF00FFFFFFFFFFFF05
:1039D000FF00181818181818180000000000000040
:1039E00000000000000000000000981818181818C7
:1039F0000018000000000000001818181818181807
:103A0000FFFFFFFFFF981898FFFFFFFFFF98189830
:103A1000181818181818189800000000000000184E
:103A20000000000000000000181818181818000006
:103A300000000000000000181818181818181818AE
:103A400098009898FFFFFFFF98009898FFFFFFFFEE
:103A50009800181818181818180000000000000026
:103A60000000000000000000000098181818181846
:103A70000018000000000000001818181818181886
:103A8000FFFFFFFFFFFF18FFFFFFFFFFFFFF18FF14
:103A900018181818181818FF000000000000001867
:103AA0000000000000000000181818181818000086
:103AB000000000000000001818181818181818182E
:103AC00098989898FFFF18FF98989898FFFF18FF0C
:103AD00018181818181818FF000000000000001827
:103AE0000000000000000000181818181818000046
:103AF00000000000000000181818181818181818EE
:103B0000000000000098FF9800181818000000003E
:103B100000189898980098FF00189818180098FFB7
:103B200000009818180098FF98000000009898FF6F
:103B3000FF0098989898FF989800FFFFFFFF9898CB
:103B4000000000000098FF980018181800000000FE
:103B500000189898980098FF00189818180098FF77
:103B600000009818180098FFFF000000009898FFC8
:103B7000FF00FFFF9898FF98FF00FFFFFFFF989856
:103B8000000000000098FF980018181800000000BE
:103B900000189898980098FF00189818180098FF37
:103BA00000009818180098FFFF000000009898FF88
:103BB000FF00FFFFFFFFFF98FF00FFFFFFFFFFFF7A
:103BC000000000000098FF9800181818000000007E
:103BD00000189898980098FF00189818180098FFF7
:103BE000000098181800FFFFFF00000000FFFFFF13
:103BF000FF00FFFFFFFFFFFFFF00FFFFFFFFFFFFD3
:103C00000000000000FFFFFF00181818000000006F
:103C1000001898989800FFFF001898181800FFFFE8
:103C2000000098181800FFFF9800000000FFFFFF39
:103C3000FF009898FFFFFFFF9800FFFFFFFFFFFFC7
:103C40000000000000FFFFFF00181818000000002F
:103C5000001898989800FFFF001898181800FFFFA8
:103C6000000098181800FFFF980000000098FFFF60
:103C7000FF0098989898FFFF9800FFFFFFFF98FFBC
:103C80000000000000FFFFFF0018181800000000EF
:103C9000001898989800FFFF001898181800FFFF68
:103CA00000009818180098FF98000000009898FFEE
:103CB000FF0098989898FF989800FFFFFFFF98984A
:103CC0000000000000FFFFFF0018181800000000AF
:103CD000001898989800FFFF001898181800FFFF28
:103CE000000098181800FFFFFF00000000FFFFFF12
:103CF000FF00FFFFFFFFFFFFFF00FFFFFFFFFFFFD2
:103D0000989818000018001898180000001800185B
:103D100018000000181800180000001818180018E3
:103D20000000181818180018181818181818001873
:103D300000000000000000181818181818181818AB
:103D4000FF98180000180018FF180000001800184D
:103D500018000000181800180000001818180018A3
:103D60000000181818180018181818181818001833
:103D7000000000000000001818181818181818186B
:103D8000FFFF180000180018FF18000000180018A6
:103D90001800000018180018000000181818001863
:103DA00000001818181800181818181818180018F3
:103DB000000000000000001818181818181818182B
:103DC000FFFF1800001800189818000000180018CD
:103DD0001800000018180018000000181818001823
:103DE00000001818181800181818181818180018B3
:103DF00000000000000000181818181818181818EB
:103E0000FF00FFFFFFFFFFFFFF00FFFFFFFFFFFFC0
:103E1000FF001818181818181800000000000000FB
:103E20000000000000000000000098181818181882
:103E300000200000000000000018181818181818BA
:103E4000000000000098FF980018181800000000FB
:103E500000189898980098FF00189818180098FF74
:103E600000189818180098FF00189818180098FF64
:103E70000018981818009898001898181800989822
:103E80009898981800000000000000000000181822
:103E900098981800009800189898180000180018B2
:103EA00098981800001800009898180000000098D2
:103EB000FF989898989818FF98FFFFFFFFFF1898B1
:103EC0000000000000FFFFFF0018181800000000AD
:103ED000001898989800FFFF001898181800FFFF26
:103EE00000189818180098FF00189818180098FFE4
:103EF00000189818180098980018981818009898A2
:103F0000FFFFFF180000000000000000000018186C
:103F1000FFFF180000980018FFFF18000018001895
:103F20009898180000180000989818000000009851
:103F3000FF989898989818FF98FFFFFFFFFF189830
:103F4000FFFFFF180000000000000000000018182C
:103F5000FFFF180000980018FFFF18000018001855
:103F6000FFFF180000180000FFFF18000000009875
:103F7000FF989898989818FF98FFFFFFFFFF1898F0
:103F8000FFFFFF18000000000000000000001818EC
:103F9000FFFF180000980018FFFF18000018001815
:103FA000FFFF180000180000FFFFFF00000000984E
:103FB000FFFFFFFF989818FFFFFFFFFFFFFF189814
:103FC00098989818000000000000000000001818E1
:103FD0009898180000980018989818000018001871
:103FE000FFFF180000180000FFFFFF00000000FFA7
:103FF000FFFFFFFFFFFF18FFFFFFFFFFFFFF18FF9F
:10400000000000000098FF98001818180000000039
:1040100000189898980098FF00189818180098FFB2
:1040200000189818180098FF00189818180098FFA2
:10403000001898181800989800189818180098FFF9
:104040009898981800000000000000000000181860
:1040500098981800009800189898180000180018F0
:10406000989818000018000098981800000000FFA9
:10407000FFFFFFFFFFFF18FFFFFFFFFFFFFF18FF1E
:104080009898981800000000000000000000181820
:1040900098981800009800189898180000180018B0
:1040A000989818000018000098981800000000FF69
:1040B000FF989898FFFF18FF98FFFFFFFFFF18FF7A
:1040C000FFFFFF18000000000000000000001818AB
:1040D000FFFF180000980018FFFF180000180018D4
:1040E000FFFF180000180000FFFFFF00000000FFA6
:1040F000FFFFFFFFFFFF18FFFFFFFFFFFFFF18FF9E
:104100000018981818009898001898181800009827
:104110000018981818180000001898181818180097
:10412000001898181818181800189818181818183F
:1041300000180000000000000018181818181818BF
:10414000001898181800FF98001898181800009880
:104150000018981818180000001898181818180057
:1041600000189818181818180018981818181818FF
:10417000001800000000000000181818181818187F
:10418000001898181800FFFF00189818180000FF72
:104190000018981818180000001898181818180017
:1041A00000189818181818180018981818181818BF
:1041B000001800000000000000181818181818183F
:1041C000FFFFFFFF98981898FFFFFFFF9898189837
:1041D0001818181818181898000000000000001887
:1041E000000000000000000018181818181800003F
:1041F00000000000000000181818181818181818E7
:104200000000000000000000001818181818181806
:1042100000189898989898980018981818181818CE
:104220000018981818181818001898181818180056
:1042300000189818181800980018981818009898DE
:1042400000000000000000001818181818181818AE
:10425000989898989898001818181818181800180E
:104260001818181818180000000000000000009826
:1042700098989898989818FF98FFFFFFFFFF189854
:104280000000000000000000001818181818181886
:10429000001898989898989800189818181818184E
:1042A00000189818181818180018981818181800D6
:1042B0000018981818180098001898181800FFFF90
:1042C0000000000000000000001818181818181846
:1042D000001898989898989800189818181818180E
:1042E0000018981818181818001898181818180096
:1042F00000189818181800FF001898181800FFFFE9
:1043000000000000000000001818181818181818ED
:10431000989898989898001818181818181800184D
:104320001818181818180000000000000000009865
:10433000FFFFFFFF989818FFFFFFFFFFFFFF189890
:1043400000000000000000001818181818181818AD
:10435000989898989898001818181818181800180D
:10436000181818181818000000000000000000FFBE
:10437000FFFFFFFFFFFF18FFFFFFFFFFFFFF18FF1B
:104380000000000000000000001818181818181885
:10439000001898989898989800189818181818184D
:1043A00000189818181818180018981818181800D5
:1043B00000189818181800FF00189818180098FF8F
:1043C000000000000000000018181818181818182D
:1043D000989898989898001818181818181800188D
:1043E000181818181818000000000000000000FF3E
:1043F00098989898FFFF18FF98FFFFFFFFFF18FF9E
:10440000001898181800989800189818180098FF25
:1044100000189818180098FF00189818180098FFAE
:1044200000189818180098FF00189818180098FF9E
:104430000018000000001818001818180018FF983D
:10444000FF98989898981898989898989898189885
:10445000989898181818189898981800000000183C
:1044600098981800000000009898180000180000A4
:1044700018181800000000189898981800001818CC
:10448000001898181800989800189818180098FFA5
:1044900000189818180098FF00189818180098FF2E
:1044A000001898181800FFFF001898181800FFFF50
:1044B00000180000000018180018181800FFFFFF6F
:1044C000FF98989898981898989898989898189805
:1044D00098989818181818989898180000000018BC
:1044E000FFFF180000000000FFFF18000018000088
:1044F0001818180000000018FFFFFF180000181817
:10450000FF98989898981898FFFF989898981898F6
:10451000FFFFFF1818181898FFFF18000000001878
:10452000FFFF180000000000FFFF18000018000047
:104530001818180000000018FFFFFF1800001818D6
:10454000FFFFFFFF98981898FFFFFFFF98981898B3
:10455000FFFFFF1818181898FFFF18000000001838
:10456000FFFF180000000000FFFF18000018000007
:104570001818180000000018FFFFFF180000181896
:10458000001898181800FFFF001898181800FFFF6F
:10459000001898181800FFFF001898181800FFFF5F
:1045A00000189818180098FF00189818180098FF1D
:1045B0000018000000001818001818180018FF98BC
:1045C000FFFFFFFFFFFF18FFFFFFFFFFFFFF18FFC9
:1045D000FFFFFF18181818FFFFFF18000000001851
:1045E0009898180000000000989818000018000023
:1045F000181818000000001898989818000018184B
:10460000FFFFFFFFFFFF18FF98FFFFFFFFFF18FFEF
:1046100098989818181818FF989818000000001813
:1046200098981800000000009898180000180000E2
:10463000181818000000001898989818000018180A
:10464000FF989898FFFF18FF98989898FFFF18FF19
:1046500098989818181818FF9898180000000018D3
:1046600098981800000000009898180000180000A2
:1046700018181800000000189898981800001818CA
:10468000FFFFFFFFFFFF18FFFFFFFFFFFFFF18FF08
:10469000FFFFFF18181818FFFFFF18000000001890
:1046A000FFFF180000000000FFFF180000180000C6
:1046B0001818180000000018FFFFFF180000181855
:1046C0000000000000000000001818181818181842
:1046D000001898989898989800189818181818180A
:1046E0000000981818181818980000000000000022
:1046F000FF009898989898989800FFFFFFFF989867
:1047000000000000000000001818181818181818E9
:104710009898989898980018181818181818001849
:104720001818181818180018001818181818001851
:104730009800001818180018989800001818001809
:1047400000000000000000000018181818181818C1
:104750000018989898989898001898181818181889
:104760000000981818181818FF000000000000003A
:10477000FF00FFFF98989898FF00FFFFFFFF9898B1
:104780000000000000000000181818181818181869
:1047900098989898989800181818181818180018C9
:1047A00018181818181800180018181818180018D1
:1047B000FF00001818180018989800001818001822
:1047C0000000000000000000181818181818181829
:1047D0009898989898980018181818181818001889
:1047E0001818181818180018001818181818001891
:1047F000FF00001818180018FFFF00001818001814
:104800000000000000000000001818181818181800
:1048100000189898989898980018981818181818C8
:1048200000009818181818189800000000000000E0
:10483000FF009898989898989800FFFFFFFF98FFBE
:10484000980098989898FF9898009898989898FF4A
:1048500098001818181898FF18000000000098FF1A
:1048600000000000000098FF00009818180098FF52
:104870000018000000001818001818180098FF9879
:10488000FF00FFFF9898FF98FF00FFFF989898FFA0
:10489000FF001818181898FF18000000000098FF73
:1048A00000000000000098FF00009818180098FF12
:1048B0000018000000001818001818180098FF9839
:1048C000FF00FFFFFFFFFF98FF00FFFFFFFF98FFC4
:1048D000FF001818181898FF18000000000098FF33
:1048E00000000000000098FF00009818180098FFD2
:1048F0000018000000001818001818180098FF98F9
:10490000FF00FFFFFFFFFFFFFF00FFFFFFFFFFFFB5
:10491000FF00181818FFFFFF180000000000FFFF3D
:1049200000000000000098FF00009818180098FF91
:104930000018000000001818001818180098FF98B8
:1049400098009898FFFFFFFF98009898FFFFFFFFDF
:104950009800181818FFFFFF180000000000FFFF64
:10496000000000000000FFFF000098181800FFFF83
:1049700000180000000018180018181800FFFFFFAA
:10498000980098989898FFFF9800989898FFFFFFD4
:10499000980018181818FFFF180000000000FFFF0B
:1049A000000000000000FFFF000098181800FFFF43
:1049B00000180000000018180018181800FFFFFF6A
:1049C000980098989898FF9898009898989898FFC9
:1049D00098001818181898FF18000000000098FF99
:1049E000000000000000FFFF000098181800FFFF03
:1049F00000180000000018180018181800FFFFFF2A
:104A0000FF00FFFFFFFFFFFFFF00FFFFFFFFFFFFB4
:104A1000FF00181818FFFFFF180000000000FFFF3C
:104A2000000000000000FFFF000098181800FFFFC2
:104A300000180000000018180018181800FFFFFFE9
:104A4000000000000098FF980018181800000000EF
:104A500000189898980098FF00189818180098FF68
:104A600000009818180098FF98000000000000004F
:104A7000FF009898989898989800FFFFFFFFFFFF15
:104A800098989818000000000000000000181818FE
:104A900098981800009800189898180000180018A6
:104AA000989818000018000000000000000000980E
:104AB00098989898989818FFFFFFFFFFFFFF1898A5
:104AC000000000000098FF9800181818000000006F
:104AD00000189898980098FF00189818180098FFE8
:104AE00000009818180098FFFF0000000000000068
:104AF000FF00FFFF98989898FF00FFFFFFFFFFFF60
:104B0000000000000098FF9800181818000000002E
:104B100000189898980098FF00189818180098FFA7
:104B200000009818180098FFFF0000000000000027
:104B3000FF00FFFFFFFFFFFFFF00FFFFFFFFFFFF83
:104B4000989898180000000000000000001818183D
:104B500098981800009800189898180000180018E5
:104B6000989818000018000000000000000000984D
:104B7000FFFFFFFF989818FFFFFFFFFFFFFF189848
:104B8000000000000098FF980018181800000000AE
:104B900000189898980098FF00189818180098FF27
:104BA00000009818180098FF98000000000000000E
:104BB000FF009898FFFFFFFF9800FFFFFFFFFFFF38
:104BC00098989818000000000000000000181818BD
:104BD0009898180000980018989818000018001865
:104BE000989818000018000000000000000018FF4E
:104BF000FFFFFFFFFFFF18FFFFFFFFFFFFFF18FF93
:104C0000989898180000000000000000001818187C
:104C10009898180000980018989818000018001824
:104C2000989818000018000000000000000018FF0D
:104C300098989898FFFF18FFFFFFFFFFFFFF18FFEE
:104C40000000000000FFFFFF00181818000000001F
:104C5000001898989800FFFF001898181800FFFF98
:104C600000009818180098FF98000000000000004D
:104C7000FF009898989898989800FFFFFFFFFFFF13
:104C8000FFFFFF18000000000000000000001818DF
:104C9000FFFF180000980018FFFF18000018001808
:104CA000989818000018000000000000000000980C
:104CB00098989898989818FFFFFFFFFFFFFF1898A3
:104CC0000000000000FFFFFF00181818000000009F
:104CD000001898989800FFFF001898181800FFFF18
:104CE00000009818180098FFFF0000000000000066
:104CF000FF00FFFF98989898FF00FFFFFFFFFFFF5E
:104D00000000000000FFFFFF00181818000000005E
:104D1000001898989800FFFF001898181800FFFFD7
:104D200000009818180098FFFF0000000000000025
:104D3000FF00FFFFFFFFFFFFFF00FFFFFFFFFFFF81
:104D4000FFFFFF180000000000000000000018181E
:104D5000FFFF180000980018FFFF18000018001847
:104D6000989818000018000000000000000000984B
:104D7000FFFFFFFF989818FFFFFFFFFFFFFF189846
:104D80000000000000FFFFFF0018181800000000DE
:104D9000001898989800FFFF001898181800FFFF57
:104DA00000009818180098FF98000000000000000C
:104DB000FF009898FFFFFFFF9800FFFFFFFFFFFF36
:104DC000FFFFFF180000000000000000000018189E
:104DD000FFFF180000980018FFFF180000180018C7
:104DE000989818000018000000000000000018FF4C
:104DF000FFFFFFFFFFFF18FFFFFFFFFFFFFF18FF91
:104E0000FFFFFF180000000000000000000018185D
:104E1000FFFF180000980018FFFF18000018001886
:104E2000989818000018000000000000000018FF0B
:104E300098989898FFFF18FFFFFFFFFFFFFF18FFEC
:104E40009800989898989898980098989898989812
:104E50009800181818181818180000000000000012
:104E600000000000000098FF00009818180098FF4C
:104E70000018000000001818001818180098FF9873
:104E800098989898989818989898989898981898A2
:104E900018181818181818980000000000000018BA
:104EA000989818000000000098981800001800005A
:104EB0001818180000000018989898180000181882
:104EC000FF00FFFF98989898FF00FFFF9898989828
:104ED000FF0018181818181818000000000000002B
:104EE00000000000000098FF00009818180098FFCC
:104EF0000018000000001818001818180098FF98F3
:104F0000FF00FFFFFFFFFFFFFF00FFFFFFFFFFFFAF
:104F1000FF001818181818181800000000000000EA
:104F200000000000000098FF00009818180098FF8B
:104F30000018000000001818001818180098FF98B2
:104F4000FFFFFFFF98981898FFFFFFFF98981898A9
:104F500018181818181818980000000000000018F9
:104F60009898180000000000989818000018000099
:104F700018181800000000189898981800001818C1
:104F800098009898FFFFFFFF98009898FFFFFFFF99
:104F900098001818181818181800000000000000D1
:104FA00000000000000098FF00009818180098FF0B
:104FB0000018000000001818001818180098FF9832
:104FC000FFFFFFFFFFFF18FFFFFFFFFFFFFF18FFBF
:104FD00018181818181818FF000000000000001812
:104FE0009898180000000000989818000018000019
:104FF0001818180000000018989898180000181841
:1050000098989898FFFF18FF98989898FFFF18FFB6
:1050100018181818181818FF0000000000000018D1
:1050200098981800000000009898180000180000D8
:105030001818180000000018989898180000181800
:105040000000000000FFFFFF00181818000000001B
:10505000001898989800FFFF001898181800FFFF94
:10506000000098181800FFFF9800000000000000E2
:10507000FF009898989898989800FFFFFFFFFFFF0F
:10508000FFFFFF18000000000000000000001818DB
:10509000FFFF180000980018FFFF18000018001804
:1050A000FFFF18000018000000000000000000983A
:1050B00098989898989818FFFFFFFFFFFFFF18989F
:1050C0000000000000FFFFFF00181818000000009B
:1050D000001898989800FFFF001898181800FFFF14
:1050E000000098181800FFFFFF00000000000000FB
:1050F000FF00FFFF98989898FF00FFFFFFFFFFFF5A
:105100000000000000FFFFFF00181818000000005A
:10511000001898989800FFFF001898181800FFFFD3
:10512000000098181800FFFFFF00000000000000BA
:10513000FF00FFFFFFFFFFFFFF00FFFFFFFFFFFF7D
:10514000FFFFFF180000000000000000000018181A
:10515000FFFF180000980018FFFF18000018001843
:10516000FFFF180000180000000000000000009879
:10517000FFFFFFFF989818FFFFFFFFFFFFFF189842
:105180000000000000FFFFFF0018181800000000DA
:10519000001898989800FFFF001898181800FFFF53
:1051A000000098181800FFFF9800000000000000A1
:1051B000FF009898FFFFFFFF9800FFFFFFFFFFFF32
:1051C000FFFFFF180000000000000000000018189A
:1051D000FFFF180000980018FFFF180000180018C3
:1051E000FFFF18000018000000000000000018FF7A
:1051F000FFFFFFFFFFFF18FFFFFFFFFFFFFF18FF8D
:10520000FFFFFF1800000000000000000000181859
:10521000FFFF180000980018FFFF18000018001882
:10522000FFFF18000018000000000000000018FF39
:1052300098989898FFFF18FFFFFFFFFFFFFF18FFE8
:10524000989898180000000000000000000018184E
:1052500098981800009800189898180000180018DE
:105260009898180000180000000000000000009846
:1052700098989898989818FFFFFFFFFFFFFF1898DD
:10528000989898180000000000000000000018180E
:10529000989818000098001898981800001800189E
:1052A0009898180000180000000000000000009806
:1052B000FFFFFFFF989818FFFFFFFFFFFFFF189801
:1052C00098989818000000000000000000001818CE
:1052D000989818000098001898981800001800185E
:1052E000989818000018000000000000000018FF47
:1052F000FFFFFFFFFFFF18FFFFFFFFFFFFFF18FF8C
:10530000989898180000000000000000000018188D
:10531000989818000098001898981800001800181D
:10532000989818000018000000000000000018FF06
:1053300098989898FFFF18FFFFFFFFFFFFFF18FFE7
:10534000980098989898989898009898989898980D
:10535000980018181818181818000000000000000D
:10536000000000001800FFFF000098181800FFFF61
:1053700000180000000018180018181800FFFFFFA0
:10538000989898989898189898989898989818989D
:1053900018181818181818980000000000000018B5
:1053A000FFFF180000000000FFFF180000180000B9
:1053B0001818180000000018FFFFFF180000181848
:1053C000FF00FFFF98989898FF00FFFF9898989823
:1053D000FF00181818181818180000000000000026
:1053E000000000001800FFFF000098181800FFFFE1
:1053F00000180000000018180018181800FFFFFF20
:10540000FF00FFFFFFFFFFFFFF00FFFFFFFFFFFFAA
:10541000FF001818181818181800000000000000E5
:10542000000000001800FFFF000098181800FFFFA0
:1054300000180000000018180018181800FFFFFFDF
:10544000FFFFFFFF98981898FFFFFFFF98981898A4
:1054500018181818181818980000000000000018F4
:10546000FFFF180000000000FFFF180000180000F8
:105470001818180000000018FFFFFF180000181887
:1054800098009898FFFFFFFF98009898FFFFFFFF94
:1054900098001818181818181800000000000000CC
:1054A000000000001800FFFF000098181800FFFF20
:1054B00000180000000018180018181800FFFFFF5F
:1054C000FFFFFFFFFFFF18FFFFFFFFFFFFFF18FFBA
:1054D00018181818181818FF00000000000000180D
:1054E000FFFF180000000000FFFF18000018000078
:1054F0001818180000000018FFFFFF180000181807
:1055000098989898FFFF18FF98989898FFFF18FFB1
:1055100018181818181818FF0000000000000018CC
:10552000FFFF180000000000FFFF18000018000037
:105530001818180000000018FFFFFF1800001818C6
:10554000000000000098FF980018181800000000E4
:1055500000189898980098FF00189818180098FF5D
:10556000000098181800FFFF9800000000000000DD
:10557000FF009898989898989800FFFFFFFFFFFF0A
:10558000989898180000000000000000000018180B
:10559000989818000098001898981800001800189B
:1055A000FFFF180000180000000000000000009835
:1055B00098989898989818FFFFFFFFFFFFFF18989A
:1055C000000000000098FF98001818180000000064
:1055D00000189898980098FF00189818180098FFDD
:1055E000000098181800FFFFFF00000000000000F6
:1055F000FF00FFFF98989898FF00FFFFFFFFFFFF55
:10560000000000000098FF98001818180000000023
:1056100000189898980098FF00189818180098FF9C
:10562000000098181800FFFFFF00000000000000B5
:10563000FF00FFFFFFFFFFFFFF00FFFFFFFFFFFF78
:10564000989898180000000000000000000018184A
:1056500098981800009800189898180000180018DA
:10566000FFFF180000180000000000000000009874
:10567000FFFFFFFF989818FFFFFFFFFFFFFF18983D
:10568000000000000098FF980018181800000000A3
:1056900000189898980098FF00189818180098FF1C
:1056A000000098181800FFFF98000000000000009C
:1056B000FF009898FFFFFFFF9800FFFFFFFFFFFF2D
:1056C00098989818000000000000000000001818CA
:1056D000989818000098001898981800001800185A
:1056E000FFFF18000018000000000000000018FF75
:1056F000FFFFFFFFFFFF18FFFFFFFFFFFFFF18FF88
:105700009898981800000000000000000000181889
:105710009898180000980018989818000018001819
:10572000FFFF18000018000000000000000018FF34
:1057300098989898FFFF18FFFFFFFFFFFFFF18FFE3
:105740000000000000000000001818181800009861
:1057500000189898000098FF00189800009898FF8B
:10576000001800009898FF98001800989898FF98E3
:1057700000180000000098FF00189800000098FF33
:105780001800000000000000FF180000181818188A
:105790009898180000980018989898180000001819
:1057A0009898981818000018989898981818000059
:1057B0009898180000000000989818000000001841
:1057C00000000000000000000018181818000098E1
:1057D00000189898000098FF00189800009898FF0B
:1057E000001800009898FFFF001800989898FFFF95
:1057F000001800000000FFFF001898000000FFFFE5
:105800001800000000000000FF1800001818181809
:105810009898180000980018989898180000001898
:10582000FFFF981818000018FFFF9898181800003C
:10583000FFFF180000000000FFFF18000000001824
:10584000000000000000000000181818180000FFF9
:10585000001898980000FFFF001898000098FFFFBC
:10586000001800009898FFFF001800989898FFFF14
:10587000001800000000FFFF001898000000FFFF64
:105880001800000000000000FF1800001818181889
:10589000FFFF180000980018FFFF9818000000187C
:1058A000FFFF981818000018FFFF989818180000BC
:1058B000FFFF180000000000FFFF180000000018A4
:1058C00098981800001800189898180000180018E8
:1058D00098981800001800189898180000180018D8
:1058E00098981800001800189898180000180018C8
:1058F0001818180000000018989898180000181838
:1059000000189818180098FF00180000000098FF71
:10591000001800989898FF98001800009898FF9831
:1059200000189800009898FF00189818000098FF39
:10593000001800000000009800181818181800003F
:10594000989818000018001898981800000000187F
:10595000989898981818001898989818180000188F
:1059600098989818000000189898180000000018DF
:10597000FF18000000000018180000001818181880
:10598000001898181800FFFF001800000000FFFF23
:10599000001800989898FFFF001800009898FFFFE3
:1059A00000189800009898FF00189818000098FFB9
:1059B00000180000000000980018181818180000BF
:1059C000FFFF180000180018FFFF18000000001863
:1059D000FFFF989818180018FFFF98181800001873
:1059E000989898180000001898981800000000185F
:1059F000FF18000000000018180000001818181800
:105A0000001898181800FFFF001800000000FFFFA2
:105A1000001800989898FFFF001800009898FFFF62
:105A2000001898000098FFFF001898180000FFFF6A
:105A300000180000000000FF0018181818180000D7
:105A4000FFFF180000180018FFFF180000000018E2
:105A5000FFFF989818180018FFFF981818000018F2
:105A6000FFFF981800000018FFFF18000000001842
:105A7000FF1800000000001818000000181818187F
:105A8000000000000000000000181818181818186E
:105A9000001898989800009800189818009800002E
:105AA0000018980098980000001800989898000036
:105AB00000009898FFFF98980098FFFF9898FFFFC4
:105AC000000000000000000000181818181818182E
:105AD00000189898980000980018981800980000EE
